{
	"data": {
		"bytecode": {
			"linkReferences": {},
			"object": "60806040525f8060146101000a81548160ff0219169083151502179055503480156027575f80fd5b50335f806101000a81548173ffffffffffffffffffffffffffffffffffffffff021916908373ffffffffffffffffffffffffffffffffffffffff160217905550611a64806100745f395ff3fe6080604052600436106100eb575f3560e01c80638cf8043811610089578063dfbf53ae11610058578063dfbf53ae14610299578063ecfc7ecc146102c3578063f77282ab146102cd578063fa6ac131146102e3576100f2565b80638cf80438146101f15780638da5cb5b1461021b578063acb902f614610245578063b81c78ec1461026f576100f2565b80634423c5f1116100c55780634423c5f1146101385780637d35045314610175578063851212d91461018b57806386433374146101c7576100f2565b806333b16d93146100f65780633918d5421461010c5780634311de8f14610122576100f2565b366100f257005b5f80fd5b348015610101575f80fd5b5061010a61030d565b005b348015610117575f80fd5b50610120610769565b005b34801561012d575f80fd5b506101366108b4565b005b348015610143575f80fd5b5061015e6004803603810190610159919061122d565b610a3b565b60405161016c9291906112a6565b60405180910390f35b348015610180575f80fd5b50610189610a89565b005b348015610196575f80fd5b506101b160048036038101906101ac91906112f7565b610c74565b6040516101be9190611322565b60405180910390f35b3480156101d2575f80fd5b506101db610c89565b6040516101e89190611355565b60405180910390f35b3480156101fc575f80fd5b50610205610c9b565b6040516102129190611322565b60405180910390f35b348015610226575f80fd5b5061022f610ca1565b60405161023c919061136e565b60405180910390f35b348015610250575f80fd5b50610259610cc4565b6040516102669190611322565b60405180910390f35b34801561027a575f80fd5b50610283610cca565b604051610290919061147a565b60405180910390f35b3480156102a4575f80fd5b506102ad610d84565b6040516102ba919061136e565b60405180910390f35b6102cb610da9565b005b3480156102d8575f80fd5b506102e1610fe8565b005b3480156102ee575f80fd5b506102f761118d565b6040516103049190611322565b60405180910390f35b5f8054906101000a900473ffffffffffffffffffffffffffffffffffffffff1673ffffffffffffffffffffffffffffffffffffffff163373ffffffffffffffffffffffffffffffffffffffff161461039a576040517f08c379a0000000000000000000000000000000000000000000000000000000008152600401610391906114f4565b60405180910390fd5b5f60149054906101000a900460ff16156103e9576040517f08c379a00000000000000000000000000000000000000000000000000000000081526004016103e09061155c565b60405180910390fd5b600260018054905014610431576040517f08c379a0000000000000000000000000000000000000000000000000000000008152600401610428906115c4565b60405180910390fd5b60015f60146101000a81548160ff0219169083151502179055505f5b600180549050811015610691575f600182610468919061160f565b90505b600180549050811015610683576001828154811061048c5761048b611642565b5b905f5260205f20906002020160010154600182815481106104b0576104af611642565b5b905f5260205f209060020201600101541115610676575f600183815481106104db576104da611642565b5b905f5260205f2090600202016040518060400160405290815f82015f9054906101000a900473ffffffffffffffffffffffffffffffffffffffff1673ffffffffffffffffffffffffffffffffffffffff1673ffffffffffffffffffffffffffffffffffffffff16815260200160018201548152505090506001828154811061056657610565611642565b5b905f5260205f2090600202016001848154811061058657610585611642565b5b905f5260205f2090600202015f82015f9054906101000a900473ffffffffffffffffffffffffffffffffffffffff16815f015f6101000a81548173ffffffffffffffffffffffffffffffffffffffff021916908373ffffffffffffffffffffffffffffffffffffffff16021790555060018201548160010155905050806001838154811061061757610616611642565b5b905f5260205f2090600202015f820151815f015f6101000a81548173ffffffffffffffffffffffffffffffffffffffff021916908373ffffffffffffffffffffffffffffffffffffffff16021790555060208201518160010155905050505b808060010191505061046b565b50808060010191505061044d565b5060015f815481106106a6576106a5611642565b5b905f5260205f2090600202015f015f9054906101000a900473ffffffffffffffffffffffffffffffffffffffff1660035f6101000a81548173ffffffffffffffffffffffffffffffffffffffff021916908373ffffffffffffffffffffffffffffffffffffffff16021790555060015f8154811061072757610726611642565b5b905f5260205f209060020201600101546004819055506001808154811061075157610750611642565b5b905f5260205f20906002020160010154600581905550565b5f60149054906101000a900460ff166107b7576040517f08c379a00000000000000000000000000000000000000000000000000000000081526004016107ae906116b9565b60405180910390fd5b5f600190505b6001805490508110156108b1575f600182815481106107df576107de611642565b5b905f5260205f2090600202015f015f9054906101000a900473ffffffffffffffffffffffffffffffffffffffff1690505f6001838154811061082457610823611642565b5b905f5260205f2090600202016001015490505f6001848154811061084b5761084a611642565b5b905f5260205f209060020201600101819055508173ffffffffffffffffffffffffffffffffffffffff166108fc8290811502906040515f60405180830381858888f193505050501580156108a1573d5f803e3d5ffd5b50505080806001019150506107bd565b50565b5f8054906101000a900473ffffffffffffffffffffffffffffffffffffffff1673ffffffffffffffffffffffffffffffffffffffff163373ffffffffffffffffffffffffffffffffffffffff1614610941576040517f08c379a0000000000000000000000000000000000000000000000000000000008152600401610938906114f4565b60405180910390fd5b5f60149054906101000a900460ff1661098f576040517f08c379a0000000000000000000000000000000000000000000000000000000008152600401610986906116b9565b60405180910390fd5b6005544710156109d4576040517f08c379a00000000000000000000000000000000000000000000000000000000081526004016109cb90611721565b60405180910390fd5b5f8054906101000a900473ffffffffffffffffffffffffffffffffffffffff1673ffffffffffffffffffffffffffffffffffffffff166108fc60055490811502906040515f60405180830381858888f19350505050158015610a38573d5f803e3d5ffd5b50565b60018181548110610a4a575f80fd5b905f5260205f2090600202015f91509050805f015f9054906101000a900473ffffffffffffffffffffffffffffffffffffffff16908060010154905082565b5f8054906101000a900473ffffffffffffffffffffffffffffffffffffffff1673ffffffffffffffffffffffffffffffffffffffff163373ffffffffffffffffffffffffffffffffffffffff1614610b16576040517f08c379a0000000000000000000000000000000000000000000000000000000008152600401610b0d906114f4565b60405180910390fd5b5f60149054906101000a900460ff16610b64576040517f08c379a0000000000000000000000000000000000000000000000000000000008152600401610b5b906117af565b60405180910390fd5b60015f610b719190611192565b5f5b6002811015610c0a5760025f60018381548110610b9357610b92611642565b5b905f5260205f2090600202015f015f9054906101000a900473ffffffffffffffffffffffffffffffffffffffff1673ffffffffffffffffffffffffffffffffffffffff1673ffffffffffffffffffffffffffffffffffffffff1681526020019081526020015f205f90558080600101915050610b73565b505f60035f6101000a81548173ffffffffffffffffffffffffffffffffffffffff021916908373ffffffffffffffffffffffffffffffffffffffff1602179055505f6004819055505f6005819055505f8060146101000a81548160ff021916908315150217905550565b6002602052805f5260405f205f915090505481565b5f60149054906101000a900460ff1681565b60045481565b5f8054906101000a900473ffffffffffffffffffffffffffffffffffffffff1681565b60055481565b60606001805480602002602001604051908101604052809291908181526020015f905b82821015610d7b578382905f5260205f2090600202016040518060400160405290815f82015f9054906101000a900473ffffffffffffffffffffffffffffffffffffffff1673ffffffffffffffffffffffffffffffffffffffff1673ffffffffffffffffffffffffffffffffffffffff16815260200160018201548152505081526020019060010190610ced565b50505050905090565b60035f9054906101000a900473ffffffffffffffffffffffffffffffffffffffff1681565b5f60149054906101000a900460ff1615610df8576040517f08c379a0000000000000000000000000000000000000000000000000000000008152600401610def9061155c565b60405180910390fd5b5f3411610e3a576040517f08c379a0000000000000000000000000000000000000000000000000000000008152600401610e319061183d565b60405180910390fd5b5f60025f3373ffffffffffffffffffffffffffffffffffffffff1673ffffffffffffffffffffffffffffffffffffffff1681526020019081526020015f205414610eb9576040517f08c379a0000000000000000000000000000000000000000000000000000000008152600401610eb0906118a5565b60405180910390fd5b600260018054905010610f01576040517f08c379a0000000000000000000000000000000000000000000000000000000008152600401610ef89061190d565b60405180910390fd5b600160405180604001604052803373ffffffffffffffffffffffffffffffffffffffff16815260200134815250908060018154018082558091505060019003905f5260205f2090600202015f909190919091505f820151815f015f6101000a81548173ffffffffffffffffffffffffffffffffffffffff021916908373ffffffffffffffffffffffffffffffffffffffff1602179055506020820151816001015550503460025f3373ffffffffffffffffffffffffffffffffffffffff1673ffffffffffffffffffffffffffffffffffffffff1681526020019081526020015f2081905550565b5f60149054906101000a900460ff16611036576040517f08c379a000000000000000000000000000000000000000000000000000000000815260040161102d906116b9565b60405180910390fd5b60035f9054906101000a900473ffffffffffffffffffffffffffffffffffffffff1673ffffffffffffffffffffffffffffffffffffffff163373ffffffffffffffffffffffffffffffffffffffff16146110c5576040517f08c379a00000000000000000000000000000000000000000000000000000000081526004016110bc90611975565b60405180910390fd5b6005546004546110d59190611993565b471015611117576040517f08c379a000000000000000000000000000000000000000000000000000000000815260040161110e90611a10565b60405180910390fd5b60035f9054906101000a900473ffffffffffffffffffffffffffffffffffffffff1673ffffffffffffffffffffffffffffffffffffffff166108fc6005546004546111629190611993565b90811502906040515f60405180830381858888f1935050505015801561118a573d5f803e3d5ffd5b50565b600281565b5080545f8255600202905f5260205f20908101906111b091906111b3565b50565b5b808211156111f2575f8082015f6101000a81549073ffffffffffffffffffffffffffffffffffffffff0219169055600182015f9055506002016111b4565b5090565b5f80fd5b5f819050919050565b61120c816111fa565b8114611216575f80fd5b50565b5f8135905061122781611203565b92915050565b5f60208284031215611242576112416111f6565b5b5f61124f84828501611219565b91505092915050565b5f73ffffffffffffffffffffffffffffffffffffffff82169050919050565b5f61128182611258565b9050919050565b61129181611277565b82525050565b6112a0816111fa565b82525050565b5f6040820190506112b95f830185611288565b6112c66020830184611297565b9392505050565b6112d681611277565b81146112e0575f80fd5b50565b5f813590506112f1816112cd565b92915050565b5f6020828403121561130c5761130b6111f6565b5b5f611319848285016112e3565b91505092915050565b5f6020820190506113355f830184611297565b92915050565b5f8115159050919050565b61134f8161133b565b82525050565b5f6020820190506113685f830184611346565b92915050565b5f6020820190506113815f830184611288565b92915050565b5f81519050919050565b5f82825260208201905092915050565b5f819050602082019050919050565b6113b981611277565b82525050565b6113c8816111fa565b82525050565b604082015f8201516113e25f8501826113b0565b5060208201516113f560208501826113bf565b50505050565b5f61140683836113ce565b60408301905092915050565b5f602082019050919050565b5f61142882611387565b6114328185611391565b935061143d836113a1565b805f5b8381101561146d57815161145488826113fb565b975061145f83611412565b925050600181019050611440565b5085935050505092915050565b5f6020820190508181035f830152611492818461141e565b905092915050565b5f82825260208201905092915050565b7f4f6e6c7920746865206f776e65722063616e2063616c6c2074686973000000005f82015250565b5f6114de601c8361149a565b91506114e9826114aa565b602082019050919050565b5f6020820190508181035f83015261150b816114d2565b9050919050565b7f41756374696f6e2068617320616c726561647920656e646564000000000000005f82015250565b5f61154660198361149a565b915061155182611512565b602082019050919050565b5f6020820190508181035f8301526115738161153a565b9050919050565b7f4e6f7420656e6f756768206269646465727320796574000000000000000000005f82015250565b5f6115ae60168361149a565b91506115b98261157a565b602082019050919050565b5f6020820190508181035f8301526115db816115a2565b9050919050565b7f4e487b71000000000000000000000000000000000000000000000000000000005f52601160045260245ffd5b5f611619826111fa565b9150611624836111fa565b925082820190508082111561163c5761163b6115e2565b5b92915050565b7f4e487b71000000000000000000000000000000000000000000000000000000005f52603260045260245ffd5b7f41756374696f6e206973207374696c6c206163746976650000000000000000005f82015250565b5f6116a360178361149a565b91506116ae8261166f565b602082019050919050565b5f6020820190508181035f8301526116d081611697565b9050919050565b7f496e73756666696369656e742062616c616e63650000000000000000000000005f82015250565b5f61170b60148361149a565b9150611716826116d7565b602082019050919050565b5f6020820190508181035f830152611738816116ff565b9050919050565b7f43616e6e6f74207265736574207768696c652061756374696f6e2069732061635f8201527f7469766500000000000000000000000000000000000000000000000000000000602082015250565b5f61179960248361149a565b91506117a48261173f565b604082019050919050565b5f6020820190508181035f8301526117c68161178d565b9050919050565b7f42696420616d6f756e74206d7573742062652067726561746572207468616e205f8201527f3000000000000000000000000000000000000000000000000000000000000000602082015250565b5f61182760218361149a565b9150611832826117cd565b604082019050919050565b5f6020820190508181035f8301526118548161181b565b9050919050565b7f596f752063616e206f6e6c7920626964206f6e636500000000000000000000005f82015250565b5f61188f60158361149a565b915061189a8261185b565b602082019050919050565b5f6020820190508181035f8301526118bc81611883565b9050919050565b7f4d6178696d756d206269646465727320726561636865640000000000000000005f82015250565b5f6118f760178361149a565b9150611902826118c3565b602082019050919050565b5f6020820190508181035f830152611924816118eb565b9050919050565b7f4f6e6c79207468652077696e6e65722063616e2066696e616c697a65000000005f82015250565b5f61195f601c8361149a565b915061196a8261192b565b602082019050919050565b5f6020820190508181035f83015261198c81611953565b9050919050565b5f61199d826111fa565b91506119a8836111fa565b92508282039050818111156119c0576119bf6115e2565b5b92915050565b7f4e6f7420656e6f7567682062616c616e636500000000000000000000000000005f82015250565b5f6119fa60128361149a565b9150611a05826119c6565b602082019050919050565b5f6020820190508181035f830152611a27816119ee565b905091905056fea2646970667358221220eb1a48092421d5c1b8d46b405245541e7623894c9836d61e1d4a445cac6048d264736f6c634300081a0033",
			"opcodes": "PUSH1 0x80 PUSH1 0x40 MSTORE PUSH0 DUP1 PUSH1 0x14 PUSH2 0x100 EXP DUP2 SLOAD DUP2 PUSH1 0xFF MUL NOT AND SWAP1 DUP4 ISZERO ISZERO MUL OR SWAP1 SSTORE POP CALLVALUE DUP1 ISZERO PUSH1 0x27 JUMPI PUSH0 DUP1 REVERT JUMPDEST POP CALLER PUSH0 DUP1 PUSH2 0x100 EXP DUP2 SLOAD DUP2 PUSH20 0xFFFFFFFFFFFFFFFFFFFFFFFFFFFFFFFFFFFFFFFF MUL NOT AND SWAP1 DUP4 PUSH20 0xFFFFFFFFFFFFFFFFFFFFFFFFFFFFFFFFFFFFFFFF AND MUL OR SWAP1 SSTORE POP PUSH2 0x1A64 DUP1 PUSH2 0x74 PUSH0 CODECOPY PUSH0 RETURN INVALID PUSH1 0x80 PUSH1 0x40 MSTORE PUSH1 0x4 CALLDATASIZE LT PUSH2 0xEB JUMPI PUSH0 CALLDATALOAD PUSH1 0xE0 SHR DUP1 PUSH4 0x8CF80438 GT PUSH2 0x89 JUMPI DUP1 PUSH4 0xDFBF53AE GT PUSH2 0x58 JUMPI DUP1 PUSH4 0xDFBF53AE EQ PUSH2 0x299 JUMPI DUP1 PUSH4 0xECFC7ECC EQ PUSH2 0x2C3 JUMPI DUP1 PUSH4 0xF77282AB EQ PUSH2 0x2CD JUMPI DUP1 PUSH4 0xFA6AC131 EQ PUSH2 0x2E3 JUMPI PUSH2 0xF2 JUMP JUMPDEST DUP1 PUSH4 0x8CF80438 EQ PUSH2 0x1F1 JUMPI DUP1 PUSH4 0x8DA5CB5B EQ PUSH2 0x21B JUMPI DUP1 PUSH4 0xACB902F6 EQ PUSH2 0x245 JUMPI DUP1 PUSH4 0xB81C78EC EQ PUSH2 0x26F JUMPI PUSH2 0xF2 JUMP JUMPDEST DUP1 PUSH4 0x4423C5F1 GT PUSH2 0xC5 JUMPI DUP1 PUSH4 0x4423C5F1 EQ PUSH2 0x138 JUMPI DUP1 PUSH4 0x7D350453 EQ PUSH2 0x175 JUMPI DUP1 PUSH4 0x851212D9 EQ PUSH2 0x18B JUMPI DUP1 PUSH4 0x86433374 EQ PUSH2 0x1C7 JUMPI PUSH2 0xF2 JUMP JUMPDEST DUP1 PUSH4 0x33B16D93 EQ PUSH2 0xF6 JUMPI DUP1 PUSH4 0x3918D542 EQ PUSH2 0x10C JUMPI DUP1 PUSH4 0x4311DE8F EQ PUSH2 0x122 JUMPI PUSH2 0xF2 JUMP JUMPDEST CALLDATASIZE PUSH2 0xF2 JUMPI STOP JUMPDEST PUSH0 DUP1 REVERT JUMPDEST CALLVALUE DUP1 ISZERO PUSH2 0x101 JUMPI PUSH0 DUP1 REVERT JUMPDEST POP PUSH2 0x10A PUSH2 0x30D JUMP JUMPDEST STOP JUMPDEST CALLVALUE DUP1 ISZERO PUSH2 0x117 JUMPI PUSH0 DUP1 REVERT JUMPDEST POP PUSH2 0x120 PUSH2 0x769 JUMP JUMPDEST STOP JUMPDEST CALLVALUE DUP1 ISZERO PUSH2 0x12D JUMPI PUSH0 DUP1 REVERT JUMPDEST POP PUSH2 0x136 PUSH2 0x8B4 JUMP JUMPDEST STOP JUMPDEST CALLVALUE DUP1 ISZERO PUSH2 0x143 JUMPI PUSH0 DUP1 REVERT JUMPDEST POP PUSH2 0x15E PUSH1 0x4 DUP1 CALLDATASIZE SUB DUP2 ADD SWAP1 PUSH2 0x159 SWAP2 SWAP1 PUSH2 0x122D JUMP JUMPDEST PUSH2 0xA3B JUMP JUMPDEST PUSH1 0x40 MLOAD PUSH2 0x16C SWAP3 SWAP2 SWAP1 PUSH2 0x12A6 JUMP JUMPDEST PUSH1 0x40 MLOAD DUP1 SWAP2 SUB SWAP1 RETURN JUMPDEST CALLVALUE DUP1 ISZERO PUSH2 0x180 JUMPI PUSH0 DUP1 REVERT JUMPDEST POP PUSH2 0x189 PUSH2 0xA89 JUMP JUMPDEST STOP JUMPDEST CALLVALUE DUP1 ISZERO PUSH2 0x196 JUMPI PUSH0 DUP1 REVERT JUMPDEST POP PUSH2 0x1B1 PUSH1 0x4 DUP1 CALLDATASIZE SUB DUP2 ADD SWAP1 PUSH2 0x1AC SWAP2 SWAP1 PUSH2 0x12F7 JUMP JUMPDEST PUSH2 0xC74 JUMP JUMPDEST PUSH1 0x40 MLOAD PUSH2 0x1BE SWAP2 SWAP1 PUSH2 0x1322 JUMP JUMPDEST PUSH1 0x40 MLOAD DUP1 SWAP2 SUB SWAP1 RETURN JUMPDEST CALLVALUE DUP1 ISZERO PUSH2 0x1D2 JUMPI PUSH0 DUP1 REVERT JUMPDEST POP PUSH2 0x1DB PUSH2 0xC89 JUMP JUMPDEST PUSH1 0x40 MLOAD PUSH2 0x1E8 SWAP2 SWAP1 PUSH2 0x1355 JUMP JUMPDEST PUSH1 0x40 MLOAD DUP1 SWAP2 SUB SWAP1 RETURN JUMPDEST CALLVALUE DUP1 ISZERO PUSH2 0x1FC JUMPI PUSH0 DUP1 REVERT JUMPDEST POP PUSH2 0x205 PUSH2 0xC9B JUMP JUMPDEST PUSH1 0x40 MLOAD PUSH2 0x212 SWAP2 SWAP1 PUSH2 0x1322 JUMP JUMPDEST PUSH1 0x40 MLOAD DUP1 SWAP2 SUB SWAP1 RETURN JUMPDEST CALLVALUE DUP1 ISZERO PUSH2 0x226 JUMPI PUSH0 DUP1 REVERT JUMPDEST POP PUSH2 0x22F PUSH2 0xCA1 JUMP JUMPDEST PUSH1 0x40 MLOAD PUSH2 0x23C SWAP2 SWAP1 PUSH2 0x136E JUMP JUMPDEST PUSH1 0x40 MLOAD DUP1 SWAP2 SUB SWAP1 RETURN JUMPDEST CALLVALUE DUP1 ISZERO PUSH2 0x250 JUMPI PUSH0 DUP1 REVERT JUMPDEST POP PUSH2 0x259 PUSH2 0xCC4 JUMP JUMPDEST PUSH1 0x40 MLOAD PUSH2 0x266 SWAP2 SWAP1 PUSH2 0x1322 JUMP JUMPDEST PUSH1 0x40 MLOAD DUP1 SWAP2 SUB SWAP1 RETURN JUMPDEST CALLVALUE DUP1 ISZERO PUSH2 0x27A JUMPI PUSH0 DUP1 REVERT JUMPDEST POP PUSH2 0x283 PUSH2 0xCCA JUMP JUMPDEST PUSH1 0x40 MLOAD PUSH2 0x290 SWAP2 SWAP1 PUSH2 0x147A JUMP JUMPDEST PUSH1 0x40 MLOAD DUP1 SWAP2 SUB SWAP1 RETURN JUMPDEST CALLVALUE DUP1 ISZERO PUSH2 0x2A4 JUMPI PUSH0 DUP1 REVERT JUMPDEST POP PUSH2 0x2AD PUSH2 0xD84 JUMP JUMPDEST PUSH1 0x40 MLOAD PUSH2 0x2BA SWAP2 SWAP1 PUSH2 0x136E JUMP JUMPDEST PUSH1 0x40 MLOAD DUP1 SWAP2 SUB SWAP1 RETURN JUMPDEST PUSH2 0x2CB PUSH2 0xDA9 JUMP JUMPDEST STOP JUMPDEST CALLVALUE DUP1 ISZERO PUSH2 0x2D8 JUMPI PUSH0 DUP1 REVERT JUMPDEST POP PUSH2 0x2E1 PUSH2 0xFE8 JUMP JUMPDEST STOP JUMPDEST CALLVALUE DUP1 ISZERO PUSH2 0x2EE JUMPI PUSH0 DUP1 REVERT JUMPDEST POP PUSH2 0x2F7 PUSH2 0x118D JUMP JUMPDEST PUSH1 0x40 MLOAD PUSH2 0x304 SWAP2 SWAP1 PUSH2 0x1322 JUMP JUMPDEST PUSH1 0x40 MLOAD DUP1 SWAP2 SUB SWAP1 RETURN JUMPDEST PUSH0 DUP1 SLOAD SWAP1 PUSH2 0x100 EXP SWAP1 DIV PUSH20 0xFFFFFFFFFFFFFFFFFFFFFFFFFFFFFFFFFFFFFFFF AND PUSH20 0xFFFFFFFFFFFFFFFFFFFFFFFFFFFFFFFFFFFFFFFF AND CALLER PUSH20 0xFFFFFFFFFFFFFFFFFFFFFFFFFFFFFFFFFFFFFFFF AND EQ PUSH2 0x39A JUMPI PUSH1 0x40 MLOAD PUSH32 0x8C379A000000000000000000000000000000000000000000000000000000000 DUP2 MSTORE PUSH1 0x4 ADD PUSH2 0x391 SWAP1 PUSH2 0x14F4 JUMP JUMPDEST PUSH1 0x40 MLOAD DUP1 SWAP2 SUB SWAP1 REVERT JUMPDEST PUSH0 PUSH1 0x14 SWAP1 SLOAD SWAP1 PUSH2 0x100 EXP SWAP1 DIV PUSH1 0xFF AND ISZERO PUSH2 0x3E9 JUMPI PUSH1 0x40 MLOAD PUSH32 0x8C379A000000000000000000000000000000000000000000000000000000000 DUP2 MSTORE PUSH1 0x4 ADD PUSH2 0x3E0 SWAP1 PUSH2 0x155C JUMP JUMPDEST PUSH1 0x40 MLOAD DUP1 SWAP2 SUB SWAP1 REVERT JUMPDEST PUSH1 0x2 PUSH1 0x1 DUP1 SLOAD SWAP1 POP EQ PUSH2 0x431 JUMPI PUSH1 0x40 MLOAD PUSH32 0x8C379A000000000000000000000000000000000000000000000000000000000 DUP2 MSTORE PUSH1 0x4 ADD PUSH2 0x428 SWAP1 PUSH2 0x15C4 JUMP JUMPDEST PUSH1 0x40 MLOAD DUP1 SWAP2 SUB SWAP1 REVERT JUMPDEST PUSH1 0x1 PUSH0 PUSH1 0x14 PUSH2 0x100 EXP DUP2 SLOAD DUP2 PUSH1 0xFF MUL NOT AND SWAP1 DUP4 ISZERO ISZERO MUL OR SWAP1 SSTORE POP PUSH0 JUMPDEST PUSH1 0x1 DUP1 SLOAD SWAP1 POP DUP2 LT ISZERO PUSH2 0x691 JUMPI PUSH0 PUSH1 0x1 DUP3 PUSH2 0x468 SWAP2 SWAP1 PUSH2 0x160F JUMP JUMPDEST SWAP1 POP JUMPDEST PUSH1 0x1 DUP1 SLOAD SWAP1 POP DUP2 LT ISZERO PUSH2 0x683 JUMPI PUSH1 0x1 DUP3 DUP2 SLOAD DUP2 LT PUSH2 0x48C JUMPI PUSH2 0x48B PUSH2 0x1642 JUMP JUMPDEST JUMPDEST SWAP1 PUSH0 MSTORE PUSH1 0x20 PUSH0 KECCAK256 SWAP1 PUSH1 0x2 MUL ADD PUSH1 0x1 ADD SLOAD PUSH1 0x1 DUP3 DUP2 SLOAD DUP2 LT PUSH2 0x4B0 JUMPI PUSH2 0x4AF PUSH2 0x1642 JUMP JUMPDEST JUMPDEST SWAP1 PUSH0 MSTORE PUSH1 0x20 PUSH0 KECCAK256 SWAP1 PUSH1 0x2 MUL ADD PUSH1 0x1 ADD SLOAD GT ISZERO PUSH2 0x676 JUMPI PUSH0 PUSH1 0x1 DUP4 DUP2 SLOAD DUP2 LT PUSH2 0x4DB JUMPI PUSH2 0x4DA PUSH2 0x1642 JUMP JUMPDEST JUMPDEST SWAP1 PUSH0 MSTORE PUSH1 0x20 PUSH0 KECCAK256 SWAP1 PUSH1 0x2 MUL ADD PUSH1 0x40 MLOAD DUP1 PUSH1 0x40 ADD PUSH1 0x40 MSTORE SWAP1 DUP2 PUSH0 DUP3 ADD PUSH0 SWAP1 SLOAD SWAP1 PUSH2 0x100 EXP SWAP1 DIV PUSH20 0xFFFFFFFFFFFFFFFFFFFFFFFFFFFFFFFFFFFFFFFF AND PUSH20 0xFFFFFFFFFFFFFFFFFFFFFFFFFFFFFFFFFFFFFFFF AND PUSH20 0xFFFFFFFFFFFFFFFFFFFFFFFFFFFFFFFFFFFFFFFF AND DUP2 MSTORE PUSH1 0x20 ADD PUSH1 0x1 DUP3 ADD SLOAD DUP2 MSTORE POP POP SWAP1 POP PUSH1 0x1 DUP3 DUP2 SLOAD DUP2 LT PUSH2 0x566 JUMPI PUSH2 0x565 PUSH2 0x1642 JUMP JUMPDEST JUMPDEST SWAP1 PUSH0 MSTORE PUSH1 0x20 PUSH0 KECCAK256 SWAP1 PUSH1 0x2 MUL ADD PUSH1 0x1 DUP5 DUP2 SLOAD DUP2 LT PUSH2 0x586 JUMPI PUSH2 0x585 PUSH2 0x1642 JUMP JUMPDEST JUMPDEST SWAP1 PUSH0 MSTORE PUSH1 0x20 PUSH0 KECCAK256 SWAP1 PUSH1 0x2 MUL ADD PUSH0 DUP3 ADD PUSH0 SWAP1 SLOAD SWAP1 PUSH2 0x100 EXP SWAP1 DIV PUSH20 0xFFFFFFFFFFFFFFFFFFFFFFFFFFFFFFFFFFFFFFFF AND DUP2 PUSH0 ADD PUSH0 PUSH2 0x100 EXP DUP2 SLOAD DUP2 PUSH20 0xFFFFFFFFFFFFFFFFFFFFFFFFFFFFFFFFFFFFFFFF MUL NOT AND SWAP1 DUP4 PUSH20 0xFFFFFFFFFFFFFFFFFFFFFFFFFFFFFFFFFFFFFFFF AND MUL OR SWAP1 SSTORE POP PUSH1 0x1 DUP3 ADD SLOAD DUP2 PUSH1 0x1 ADD SSTORE SWAP1 POP POP DUP1 PUSH1 0x1 DUP4 DUP2 SLOAD DUP2 LT PUSH2 0x617 JUMPI PUSH2 0x616 PUSH2 0x1642 JUMP JUMPDEST JUMPDEST SWAP1 PUSH0 MSTORE PUSH1 0x20 PUSH0 KECCAK256 SWAP1 PUSH1 0x2 MUL ADD PUSH0 DUP3 ADD MLOAD DUP2 PUSH0 ADD PUSH0 PUSH2 0x100 EXP DUP2 SLOAD DUP2 PUSH20 0xFFFFFFFFFFFFFFFFFFFFFFFFFFFFFFFFFFFFFFFF MUL NOT AND SWAP1 DUP4 PUSH20 0xFFFFFFFFFFFFFFFFFFFFFFFFFFFFFFFFFFFFFFFF AND MUL OR SWAP1 SSTORE POP PUSH1 0x20 DUP3 ADD MLOAD DUP2 PUSH1 0x1 ADD SSTORE SWAP1 POP POP POP JUMPDEST DUP1 DUP1 PUSH1 0x1 ADD SWAP2 POP POP PUSH2 0x46B JUMP JUMPDEST POP DUP1 DUP1 PUSH1 0x1 ADD SWAP2 POP POP PUSH2 0x44D JUMP JUMPDEST POP PUSH1 0x1 PUSH0 DUP2 SLOAD DUP2 LT PUSH2 0x6A6 JUMPI PUSH2 0x6A5 PUSH2 0x1642 JUMP JUMPDEST JUMPDEST SWAP1 PUSH0 MSTORE PUSH1 0x20 PUSH0 KECCAK256 SWAP1 PUSH1 0x2 MUL ADD PUSH0 ADD PUSH0 SWAP1 SLOAD SWAP1 PUSH2 0x100 EXP SWAP1 DIV PUSH20 0xFFFFFFFFFFFFFFFFFFFFFFFFFFFFFFFFFFFFFFFF AND PUSH1 0x3 PUSH0 PUSH2 0x100 EXP DUP2 SLOAD DUP2 PUSH20 0xFFFFFFFFFFFFFFFFFFFFFFFFFFFFFFFFFFFFFFFF MUL NOT AND SWAP1 DUP4 PUSH20 0xFFFFFFFFFFFFFFFFFFFFFFFFFFFFFFFFFFFFFFFF AND MUL OR SWAP1 SSTORE POP PUSH1 0x1 PUSH0 DUP2 SLOAD DUP2 LT PUSH2 0x727 JUMPI PUSH2 0x726 PUSH2 0x1642 JUMP JUMPDEST JUMPDEST SWAP1 PUSH0 MSTORE PUSH1 0x20 PUSH0 KECCAK256 SWAP1 PUSH1 0x2 MUL ADD PUSH1 0x1 ADD SLOAD PUSH1 0x4 DUP2 SWAP1 SSTORE POP PUSH1 0x1 DUP1 DUP2 SLOAD DUP2 LT PUSH2 0x751 JUMPI PUSH2 0x750 PUSH2 0x1642 JUMP JUMPDEST JUMPDEST SWAP1 PUSH0 MSTORE PUSH1 0x20 PUSH0 KECCAK256 SWAP1 PUSH1 0x2 MUL ADD PUSH1 0x1 ADD SLOAD PUSH1 0x5 DUP2 SWAP1 SSTORE POP JUMP JUMPDEST PUSH0 PUSH1 0x14 SWAP1 SLOAD SWAP1 PUSH2 0x100 EXP SWAP1 DIV PUSH1 0xFF AND PUSH2 0x7B7 JUMPI PUSH1 0x40 MLOAD PUSH32 0x8C379A000000000000000000000000000000000000000000000000000000000 DUP2 MSTORE PUSH1 0x4 ADD PUSH2 0x7AE SWAP1 PUSH2 0x16B9 JUMP JUMPDEST PUSH1 0x40 MLOAD DUP1 SWAP2 SUB SWAP1 REVERT JUMPDEST PUSH0 PUSH1 0x1 SWAP1 POP JUMPDEST PUSH1 0x1 DUP1 SLOAD SWAP1 POP DUP2 LT ISZERO PUSH2 0x8B1 JUMPI PUSH0 PUSH1 0x1 DUP3 DUP2 SLOAD DUP2 LT PUSH2 0x7DF JUMPI PUSH2 0x7DE PUSH2 0x1642 JUMP JUMPDEST JUMPDEST SWAP1 PUSH0 MSTORE PUSH1 0x20 PUSH0 KECCAK256 SWAP1 PUSH1 0x2 MUL ADD PUSH0 ADD PUSH0 SWAP1 SLOAD SWAP1 PUSH2 0x100 EXP SWAP1 DIV PUSH20 0xFFFFFFFFFFFFFFFFFFFFFFFFFFFFFFFFFFFFFFFF AND SWAP1 POP PUSH0 PUSH1 0x1 DUP4 DUP2 SLOAD DUP2 LT PUSH2 0x824 JUMPI PUSH2 0x823 PUSH2 0x1642 JUMP JUMPDEST JUMPDEST SWAP1 PUSH0 MSTORE PUSH1 0x20 PUSH0 KECCAK256 SWAP1 PUSH1 0x2 MUL ADD PUSH1 0x1 ADD SLOAD SWAP1 POP PUSH0 PUSH1 0x1 DUP5 DUP2 SLOAD DUP2 LT PUSH2 0x84B JUMPI PUSH2 0x84A PUSH2 0x1642 JUMP JUMPDEST JUMPDEST SWAP1 PUSH0 MSTORE PUSH1 0x20 PUSH0 KECCAK256 SWAP1 PUSH1 0x2 MUL ADD PUSH1 0x1 ADD DUP2 SWAP1 SSTORE POP DUP2 PUSH20 0xFFFFFFFFFFFFFFFFFFFFFFFFFFFFFFFFFFFFFFFF AND PUSH2 0x8FC DUP3 SWAP1 DUP2 ISZERO MUL SWAP1 PUSH1 0x40 MLOAD PUSH0 PUSH1 0x40 MLOAD DUP1 DUP4 SUB DUP2 DUP6 DUP9 DUP9 CALL SWAP4 POP POP POP POP ISZERO DUP1 ISZERO PUSH2 0x8A1 JUMPI RETURNDATASIZE PUSH0 DUP1 RETURNDATACOPY RETURNDATASIZE PUSH0 REVERT JUMPDEST POP POP POP DUP1 DUP1 PUSH1 0x1 ADD SWAP2 POP POP PUSH2 0x7BD JUMP JUMPDEST POP JUMP JUMPDEST PUSH0 DUP1 SLOAD SWAP1 PUSH2 0x100 EXP SWAP1 DIV PUSH20 0xFFFFFFFFFFFFFFFFFFFFFFFFFFFFFFFFFFFFFFFF AND PUSH20 0xFFFFFFFFFFFFFFFFFFFFFFFFFFFFFFFFFFFFFFFF AND CALLER PUSH20 0xFFFFFFFFFFFFFFFFFFFFFFFFFFFFFFFFFFFFFFFF AND EQ PUSH2 0x941 JUMPI PUSH1 0x40 MLOAD PUSH32 0x8C379A000000000000000000000000000000000000000000000000000000000 DUP2 MSTORE PUSH1 0x4 ADD PUSH2 0x938 SWAP1 PUSH2 0x14F4 JUMP JUMPDEST PUSH1 0x40 MLOAD DUP1 SWAP2 SUB SWAP1 REVERT JUMPDEST PUSH0 PUSH1 0x14 SWAP1 SLOAD SWAP1 PUSH2 0x100 EXP SWAP1 DIV PUSH1 0xFF AND PUSH2 0x98F JUMPI PUSH1 0x40 MLOAD PUSH32 0x8C379A000000000000000000000000000000000000000000000000000000000 DUP2 MSTORE PUSH1 0x4 ADD PUSH2 0x986 SWAP1 PUSH2 0x16B9 JUMP JUMPDEST PUSH1 0x40 MLOAD DUP1 SWAP2 SUB SWAP1 REVERT JUMPDEST PUSH1 0x5 SLOAD SELFBALANCE LT ISZERO PUSH2 0x9D4 JUMPI PUSH1 0x40 MLOAD PUSH32 0x8C379A000000000000000000000000000000000000000000000000000000000 DUP2 MSTORE PUSH1 0x4 ADD PUSH2 0x9CB SWAP1 PUSH2 0x1721 JUMP JUMPDEST PUSH1 0x40 MLOAD DUP1 SWAP2 SUB SWAP1 REVERT JUMPDEST PUSH0 DUP1 SLOAD SWAP1 PUSH2 0x100 EXP SWAP1 DIV PUSH20 0xFFFFFFFFFFFFFFFFFFFFFFFFFFFFFFFFFFFFFFFF AND PUSH20 0xFFFFFFFFFFFFFFFFFFFFFFFFFFFFFFFFFFFFFFFF AND PUSH2 0x8FC PUSH1 0x5 SLOAD SWAP1 DUP2 ISZERO MUL SWAP1 PUSH1 0x40 MLOAD PUSH0 PUSH1 0x40 MLOAD DUP1 DUP4 SUB DUP2 DUP6 DUP9 DUP9 CALL SWAP4 POP POP POP POP ISZERO DUP1 ISZERO PUSH2 0xA38 JUMPI RETURNDATASIZE PUSH0 DUP1 RETURNDATACOPY RETURNDATASIZE PUSH0 REVERT JUMPDEST POP JUMP JUMPDEST PUSH1 0x1 DUP2 DUP2 SLOAD DUP2 LT PUSH2 0xA4A JUMPI PUSH0 DUP1 REVERT JUMPDEST SWAP1 PUSH0 MSTORE PUSH1 0x20 PUSH0 KECCAK256 SWAP1 PUSH1 0x2 MUL ADD PUSH0 SWAP2 POP SWAP1 POP DUP1 PUSH0 ADD PUSH0 SWAP1 SLOAD SWAP1 PUSH2 0x100 EXP SWAP1 DIV PUSH20 0xFFFFFFFFFFFFFFFFFFFFFFFFFFFFFFFFFFFFFFFF AND SWAP1 DUP1 PUSH1 0x1 ADD SLOAD SWAP1 POP DUP3 JUMP JUMPDEST PUSH0 DUP1 SLOAD SWAP1 PUSH2 0x100 EXP SWAP1 DIV PUSH20 0xFFFFFFFFFFFFFFFFFFFFFFFFFFFFFFFFFFFFFFFF AND PUSH20 0xFFFFFFFFFFFFFFFFFFFFFFFFFFFFFFFFFFFFFFFF AND CALLER PUSH20 0xFFFFFFFFFFFFFFFFFFFFFFFFFFFFFFFFFFFFFFFF AND EQ PUSH2 0xB16 JUMPI PUSH1 0x40 MLOAD PUSH32 0x8C379A000000000000000000000000000000000000000000000000000000000 DUP2 MSTORE PUSH1 0x4 ADD PUSH2 0xB0D SWAP1 PUSH2 0x14F4 JUMP JUMPDEST PUSH1 0x40 MLOAD DUP1 SWAP2 SUB SWAP1 REVERT JUMPDEST PUSH0 PUSH1 0x14 SWAP1 SLOAD SWAP1 PUSH2 0x100 EXP SWAP1 DIV PUSH1 0xFF AND PUSH2 0xB64 JUMPI PUSH1 0x40 MLOAD PUSH32 0x8C379A000000000000000000000000000000000000000000000000000000000 DUP2 MSTORE PUSH1 0x4 ADD PUSH2 0xB5B SWAP1 PUSH2 0x17AF JUMP JUMPDEST PUSH1 0x40 MLOAD DUP1 SWAP2 SUB SWAP1 REVERT JUMPDEST PUSH1 0x1 PUSH0 PUSH2 0xB71 SWAP2 SWAP1 PUSH2 0x1192 JUMP JUMPDEST PUSH0 JUMPDEST PUSH1 0x2 DUP2 LT ISZERO PUSH2 0xC0A JUMPI PUSH1 0x2 PUSH0 PUSH1 0x1 DUP4 DUP2 SLOAD DUP2 LT PUSH2 0xB93 JUMPI PUSH2 0xB92 PUSH2 0x1642 JUMP JUMPDEST JUMPDEST SWAP1 PUSH0 MSTORE PUSH1 0x20 PUSH0 KECCAK256 SWAP1 PUSH1 0x2 MUL ADD PUSH0 ADD PUSH0 SWAP1 SLOAD SWAP1 PUSH2 0x100 EXP SWAP1 DIV PUSH20 0xFFFFFFFFFFFFFFFFFFFFFFFFFFFFFFFFFFFFFFFF AND PUSH20 0xFFFFFFFFFFFFFFFFFFFFFFFFFFFFFFFFFFFFFFFF AND PUSH20 0xFFFFFFFFFFFFFFFFFFFFFFFFFFFFFFFFFFFFFFFF AND DUP2 MSTORE PUSH1 0x20 ADD SWAP1 DUP2 MSTORE PUSH1 0x20 ADD PUSH0 KECCAK256 PUSH0 SWAP1 SSTORE DUP1 DUP1 PUSH1 0x1 ADD SWAP2 POP POP PUSH2 0xB73 JUMP JUMPDEST POP PUSH0 PUSH1 0x3 PUSH0 PUSH2 0x100 EXP DUP2 SLOAD DUP2 PUSH20 0xFFFFFFFFFFFFFFFFFFFFFFFFFFFFFFFFFFFFFFFF MUL NOT AND SWAP1 DUP4 PUSH20 0xFFFFFFFFFFFFFFFFFFFFFFFFFFFFFFFFFFFFFFFF AND MUL OR SWAP1 SSTORE POP PUSH0 PUSH1 0x4 DUP2 SWAP1 SSTORE POP PUSH0 PUSH1 0x5 DUP2 SWAP1 SSTORE POP PUSH0 DUP1 PUSH1 0x14 PUSH2 0x100 EXP DUP2 SLOAD DUP2 PUSH1 0xFF MUL NOT AND SWAP1 DUP4 ISZERO ISZERO MUL OR SWAP1 SSTORE POP JUMP JUMPDEST PUSH1 0x2 PUSH1 0x20 MSTORE DUP1 PUSH0 MSTORE PUSH1 0x40 PUSH0 KECCAK256 PUSH0 SWAP2 POP SWAP1 POP SLOAD DUP2 JUMP JUMPDEST PUSH0 PUSH1 0x14 SWAP1 SLOAD SWAP1 PUSH2 0x100 EXP SWAP1 DIV PUSH1 0xFF AND DUP2 JUMP JUMPDEST PUSH1 0x4 SLOAD DUP2 JUMP JUMPDEST PUSH0 DUP1 SLOAD SWAP1 PUSH2 0x100 EXP SWAP1 DIV PUSH20 0xFFFFFFFFFFFFFFFFFFFFFFFFFFFFFFFFFFFFFFFF AND DUP2 JUMP JUMPDEST PUSH1 0x5 SLOAD DUP2 JUMP JUMPDEST PUSH1 0x60 PUSH1 0x1 DUP1 SLOAD DUP1 PUSH1 0x20 MUL PUSH1 0x20 ADD PUSH1 0x40 MLOAD SWAP1 DUP2 ADD PUSH1 0x40 MSTORE DUP1 SWAP3 SWAP2 SWAP1 DUP2 DUP2 MSTORE PUSH1 0x20 ADD PUSH0 SWAP1 JUMPDEST DUP3 DUP3 LT ISZERO PUSH2 0xD7B JUMPI DUP4 DUP3 SWAP1 PUSH0 MSTORE PUSH1 0x20 PUSH0 KECCAK256 SWAP1 PUSH1 0x2 MUL ADD PUSH1 0x40 MLOAD DUP1 PUSH1 0x40 ADD PUSH1 0x40 MSTORE SWAP1 DUP2 PUSH0 DUP3 ADD PUSH0 SWAP1 SLOAD SWAP1 PUSH2 0x100 EXP SWAP1 DIV PUSH20 0xFFFFFFFFFFFFFFFFFFFFFFFFFFFFFFFFFFFFFFFF AND PUSH20 0xFFFFFFFFFFFFFFFFFFFFFFFFFFFFFFFFFFFFFFFF AND PUSH20 0xFFFFFFFFFFFFFFFFFFFFFFFFFFFFFFFFFFFFFFFF AND DUP2 MSTORE PUSH1 0x20 ADD PUSH1 0x1 DUP3 ADD SLOAD DUP2 MSTORE POP POP DUP2 MSTORE PUSH1 0x20 ADD SWAP1 PUSH1 0x1 ADD SWAP1 PUSH2 0xCED JUMP JUMPDEST POP POP POP POP SWAP1 POP SWAP1 JUMP JUMPDEST PUSH1 0x3 PUSH0 SWAP1 SLOAD SWAP1 PUSH2 0x100 EXP SWAP1 DIV PUSH20 0xFFFFFFFFFFFFFFFFFFFFFFFFFFFFFFFFFFFFFFFF AND DUP2 JUMP JUMPDEST PUSH0 PUSH1 0x14 SWAP1 SLOAD SWAP1 PUSH2 0x100 EXP SWAP1 DIV PUSH1 0xFF AND ISZERO PUSH2 0xDF8 JUMPI PUSH1 0x40 MLOAD PUSH32 0x8C379A000000000000000000000000000000000000000000000000000000000 DUP2 MSTORE PUSH1 0x4 ADD PUSH2 0xDEF SWAP1 PUSH2 0x155C JUMP JUMPDEST PUSH1 0x40 MLOAD DUP1 SWAP2 SUB SWAP1 REVERT JUMPDEST PUSH0 CALLVALUE GT PUSH2 0xE3A JUMPI PUSH1 0x40 MLOAD PUSH32 0x8C379A000000000000000000000000000000000000000000000000000000000 DUP2 MSTORE PUSH1 0x4 ADD PUSH2 0xE31 SWAP1 PUSH2 0x183D JUMP JUMPDEST PUSH1 0x40 MLOAD DUP1 SWAP2 SUB SWAP1 REVERT JUMPDEST PUSH0 PUSH1 0x2 PUSH0 CALLER PUSH20 0xFFFFFFFFFFFFFFFFFFFFFFFFFFFFFFFFFFFFFFFF AND PUSH20 0xFFFFFFFFFFFFFFFFFFFFFFFFFFFFFFFFFFFFFFFF AND DUP2 MSTORE PUSH1 0x20 ADD SWAP1 DUP2 MSTORE PUSH1 0x20 ADD PUSH0 KECCAK256 SLOAD EQ PUSH2 0xEB9 JUMPI PUSH1 0x40 MLOAD PUSH32 0x8C379A000000000000000000000000000000000000000000000000000000000 DUP2 MSTORE PUSH1 0x4 ADD PUSH2 0xEB0 SWAP1 PUSH2 0x18A5 JUMP JUMPDEST PUSH1 0x40 MLOAD DUP1 SWAP2 SUB SWAP1 REVERT JUMPDEST PUSH1 0x2 PUSH1 0x1 DUP1 SLOAD SWAP1 POP LT PUSH2 0xF01 JUMPI PUSH1 0x40 MLOAD PUSH32 0x8C379A000000000000000000000000000000000000000000000000000000000 DUP2 MSTORE PUSH1 0x4 ADD PUSH2 0xEF8 SWAP1 PUSH2 0x190D JUMP JUMPDEST PUSH1 0x40 MLOAD DUP1 SWAP2 SUB SWAP1 REVERT JUMPDEST PUSH1 0x1 PUSH1 0x40 MLOAD DUP1 PUSH1 0x40 ADD PUSH1 0x40 MSTORE DUP1 CALLER PUSH20 0xFFFFFFFFFFFFFFFFFFFFFFFFFFFFFFFFFFFFFFFF AND DUP2 MSTORE PUSH1 0x20 ADD CALLVALUE DUP2 MSTORE POP SWAP1 DUP1 PUSH1 0x1 DUP2 SLOAD ADD DUP1 DUP3 SSTORE DUP1 SWAP2 POP POP PUSH1 0x1 SWAP1 SUB SWAP1 PUSH0 MSTORE PUSH1 0x20 PUSH0 KECCAK256 SWAP1 PUSH1 0x2 MUL ADD PUSH0 SWAP1 SWAP2 SWAP1 SWAP2 SWAP1 SWAP2 POP PUSH0 DUP3 ADD MLOAD DUP2 PUSH0 ADD PUSH0 PUSH2 0x100 EXP DUP2 SLOAD DUP2 PUSH20 0xFFFFFFFFFFFFFFFFFFFFFFFFFFFFFFFFFFFFFFFF MUL NOT AND SWAP1 DUP4 PUSH20 0xFFFFFFFFFFFFFFFFFFFFFFFFFFFFFFFFFFFFFFFF AND MUL OR SWAP1 SSTORE POP PUSH1 0x20 DUP3 ADD MLOAD DUP2 PUSH1 0x1 ADD SSTORE POP POP CALLVALUE PUSH1 0x2 PUSH0 CALLER PUSH20 0xFFFFFFFFFFFFFFFFFFFFFFFFFFFFFFFFFFFFFFFF AND PUSH20 0xFFFFFFFFFFFFFFFFFFFFFFFFFFFFFFFFFFFFFFFF AND DUP2 MSTORE PUSH1 0x20 ADD SWAP1 DUP2 MSTORE PUSH1 0x20 ADD PUSH0 KECCAK256 DUP2 SWAP1 SSTORE POP JUMP JUMPDEST PUSH0 PUSH1 0x14 SWAP1 SLOAD SWAP1 PUSH2 0x100 EXP SWAP1 DIV PUSH1 0xFF AND PUSH2 0x1036 JUMPI PUSH1 0x40 MLOAD PUSH32 0x8C379A000000000000000000000000000000000000000000000000000000000 DUP2 MSTORE PUSH1 0x4 ADD PUSH2 0x102D SWAP1 PUSH2 0x16B9 JUMP JUMPDEST PUSH1 0x40 MLOAD DUP1 SWAP2 SUB SWAP1 REVERT JUMPDEST PUSH1 0x3 PUSH0 SWAP1 SLOAD SWAP1 PUSH2 0x100 EXP SWAP1 DIV PUSH20 0xFFFFFFFFFFFFFFFFFFFFFFFFFFFFFFFFFFFFFFFF AND PUSH20 0xFFFFFFFFFFFFFFFFFFFFFFFFFFFFFFFFFFFFFFFF AND CALLER PUSH20 0xFFFFFFFFFFFFFFFFFFFFFFFFFFFFFFFFFFFFFFFF AND EQ PUSH2 0x10C5 JUMPI PUSH1 0x40 MLOAD PUSH32 0x8C379A000000000000000000000000000000000000000000000000000000000 DUP2 MSTORE PUSH1 0x4 ADD PUSH2 0x10BC SWAP1 PUSH2 0x1975 JUMP JUMPDEST PUSH1 0x40 MLOAD DUP1 SWAP2 SUB SWAP1 REVERT JUMPDEST PUSH1 0x5 SLOAD PUSH1 0x4 SLOAD PUSH2 0x10D5 SWAP2 SWAP1 PUSH2 0x1993 JUMP JUMPDEST SELFBALANCE LT ISZERO PUSH2 0x1117 JUMPI PUSH1 0x40 MLOAD PUSH32 0x8C379A000000000000000000000000000000000000000000000000000000000 DUP2 MSTORE PUSH1 0x4 ADD PUSH2 0x110E SWAP1 PUSH2 0x1A10 JUMP JUMPDEST PUSH1 0x40 MLOAD DUP1 SWAP2 SUB SWAP1 REVERT JUMPDEST PUSH1 0x3 PUSH0 SWAP1 SLOAD SWAP1 PUSH2 0x100 EXP SWAP1 DIV PUSH20 0xFFFFFFFFFFFFFFFFFFFFFFFFFFFFFFFFFFFFFFFF AND PUSH20 0xFFFFFFFFFFFFFFFFFFFFFFFFFFFFFFFFFFFFFFFF AND PUSH2 0x8FC PUSH1 0x5 SLOAD PUSH1 0x4 SLOAD PUSH2 0x1162 SWAP2 SWAP1 PUSH2 0x1993 JUMP JUMPDEST SWAP1 DUP2 ISZERO MUL SWAP1 PUSH1 0x40 MLOAD PUSH0 PUSH1 0x40 MLOAD DUP1 DUP4 SUB DUP2 DUP6 DUP9 DUP9 CALL SWAP4 POP POP POP POP ISZERO DUP1 ISZERO PUSH2 0x118A JUMPI RETURNDATASIZE PUSH0 DUP1 RETURNDATACOPY RETURNDATASIZE PUSH0 REVERT JUMPDEST POP JUMP JUMPDEST PUSH1 0x2 DUP2 JUMP JUMPDEST POP DUP1 SLOAD PUSH0 DUP3 SSTORE PUSH1 0x2 MUL SWAP1 PUSH0 MSTORE PUSH1 0x20 PUSH0 KECCAK256 SWAP1 DUP2 ADD SWAP1 PUSH2 0x11B0 SWAP2 SWAP1 PUSH2 0x11B3 JUMP JUMPDEST POP JUMP JUMPDEST JUMPDEST DUP1 DUP3 GT ISZERO PUSH2 0x11F2 JUMPI PUSH0 DUP1 DUP3 ADD PUSH0 PUSH2 0x100 EXP DUP2 SLOAD SWAP1 PUSH20 0xFFFFFFFFFFFFFFFFFFFFFFFFFFFFFFFFFFFFFFFF MUL NOT AND SWAP1 SSTORE PUSH1 0x1 DUP3 ADD PUSH0 SWAP1 SSTORE POP PUSH1 0x2 ADD PUSH2 0x11B4 JUMP JUMPDEST POP SWAP1 JUMP JUMPDEST PUSH0 DUP1 REVERT JUMPDEST PUSH0 DUP2 SWAP1 POP SWAP2 SWAP1 POP JUMP JUMPDEST PUSH2 0x120C DUP2 PUSH2 0x11FA JUMP JUMPDEST DUP2 EQ PUSH2 0x1216 JUMPI PUSH0 DUP1 REVERT JUMPDEST POP JUMP JUMPDEST PUSH0 DUP2 CALLDATALOAD SWAP1 POP PUSH2 0x1227 DUP2 PUSH2 0x1203 JUMP JUMPDEST SWAP3 SWAP2 POP POP JUMP JUMPDEST PUSH0 PUSH1 0x20 DUP3 DUP5 SUB SLT ISZERO PUSH2 0x1242 JUMPI PUSH2 0x1241 PUSH2 0x11F6 JUMP JUMPDEST JUMPDEST PUSH0 PUSH2 0x124F DUP5 DUP3 DUP6 ADD PUSH2 0x1219 JUMP JUMPDEST SWAP2 POP POP SWAP3 SWAP2 POP POP JUMP JUMPDEST PUSH0 PUSH20 0xFFFFFFFFFFFFFFFFFFFFFFFFFFFFFFFFFFFFFFFF DUP3 AND SWAP1 POP SWAP2 SWAP1 POP JUMP JUMPDEST PUSH0 PUSH2 0x1281 DUP3 PUSH2 0x1258 JUMP JUMPDEST SWAP1 POP SWAP2 SWAP1 POP JUMP JUMPDEST PUSH2 0x1291 DUP2 PUSH2 0x1277 JUMP JUMPDEST DUP3 MSTORE POP POP JUMP JUMPDEST PUSH2 0x12A0 DUP2 PUSH2 0x11FA JUMP JUMPDEST DUP3 MSTORE POP POP JUMP JUMPDEST PUSH0 PUSH1 0x40 DUP3 ADD SWAP1 POP PUSH2 0x12B9 PUSH0 DUP4 ADD DUP6 PUSH2 0x1288 JUMP JUMPDEST PUSH2 0x12C6 PUSH1 0x20 DUP4 ADD DUP5 PUSH2 0x1297 JUMP JUMPDEST SWAP4 SWAP3 POP POP POP JUMP JUMPDEST PUSH2 0x12D6 DUP2 PUSH2 0x1277 JUMP JUMPDEST DUP2 EQ PUSH2 0x12E0 JUMPI PUSH0 DUP1 REVERT JUMPDEST POP JUMP JUMPDEST PUSH0 DUP2 CALLDATALOAD SWAP1 POP PUSH2 0x12F1 DUP2 PUSH2 0x12CD JUMP JUMPDEST SWAP3 SWAP2 POP POP JUMP JUMPDEST PUSH0 PUSH1 0x20 DUP3 DUP5 SUB SLT ISZERO PUSH2 0x130C JUMPI PUSH2 0x130B PUSH2 0x11F6 JUMP JUMPDEST JUMPDEST PUSH0 PUSH2 0x1319 DUP5 DUP3 DUP6 ADD PUSH2 0x12E3 JUMP JUMPDEST SWAP2 POP POP SWAP3 SWAP2 POP POP JUMP JUMPDEST PUSH0 PUSH1 0x20 DUP3 ADD SWAP1 POP PUSH2 0x1335 PUSH0 DUP4 ADD DUP5 PUSH2 0x1297 JUMP JUMPDEST SWAP3 SWAP2 POP POP JUMP JUMPDEST PUSH0 DUP2 ISZERO ISZERO SWAP1 POP SWAP2 SWAP1 POP JUMP JUMPDEST PUSH2 0x134F DUP2 PUSH2 0x133B JUMP JUMPDEST DUP3 MSTORE POP POP JUMP JUMPDEST PUSH0 PUSH1 0x20 DUP3 ADD SWAP1 POP PUSH2 0x1368 PUSH0 DUP4 ADD DUP5 PUSH2 0x1346 JUMP JUMPDEST SWAP3 SWAP2 POP POP JUMP JUMPDEST PUSH0 PUSH1 0x20 DUP3 ADD SWAP1 POP PUSH2 0x1381 PUSH0 DUP4 ADD DUP5 PUSH2 0x1288 JUMP JUMPDEST SWAP3 SWAP2 POP POP JUMP JUMPDEST PUSH0 DUP2 MLOAD SWAP1 POP SWAP2 SWAP1 POP JUMP JUMPDEST PUSH0 DUP3 DUP3 MSTORE PUSH1 0x20 DUP3 ADD SWAP1 POP SWAP3 SWAP2 POP POP JUMP JUMPDEST PUSH0 DUP2 SWAP1 POP PUSH1 0x20 DUP3 ADD SWAP1 POP SWAP2 SWAP1 POP JUMP JUMPDEST PUSH2 0x13B9 DUP2 PUSH2 0x1277 JUMP JUMPDEST DUP3 MSTORE POP POP JUMP JUMPDEST PUSH2 0x13C8 DUP2 PUSH2 0x11FA JUMP JUMPDEST DUP3 MSTORE POP POP JUMP JUMPDEST PUSH1 0x40 DUP3 ADD PUSH0 DUP3 ADD MLOAD PUSH2 0x13E2 PUSH0 DUP6 ADD DUP3 PUSH2 0x13B0 JUMP JUMPDEST POP PUSH1 0x20 DUP3 ADD MLOAD PUSH2 0x13F5 PUSH1 0x20 DUP6 ADD DUP3 PUSH2 0x13BF JUMP JUMPDEST POP POP POP POP JUMP JUMPDEST PUSH0 PUSH2 0x1406 DUP4 DUP4 PUSH2 0x13CE JUMP JUMPDEST PUSH1 0x40 DUP4 ADD SWAP1 POP SWAP3 SWAP2 POP POP JUMP JUMPDEST PUSH0 PUSH1 0x20 DUP3 ADD SWAP1 POP SWAP2 SWAP1 POP JUMP JUMPDEST PUSH0 PUSH2 0x1428 DUP3 PUSH2 0x1387 JUMP JUMPDEST PUSH2 0x1432 DUP2 DUP6 PUSH2 0x1391 JUMP JUMPDEST SWAP4 POP PUSH2 0x143D DUP4 PUSH2 0x13A1 JUMP JUMPDEST DUP1 PUSH0 JUMPDEST DUP4 DUP2 LT ISZERO PUSH2 0x146D JUMPI DUP2 MLOAD PUSH2 0x1454 DUP9 DUP3 PUSH2 0x13FB JUMP JUMPDEST SWAP8 POP PUSH2 0x145F DUP4 PUSH2 0x1412 JUMP JUMPDEST SWAP3 POP POP PUSH1 0x1 DUP2 ADD SWAP1 POP PUSH2 0x1440 JUMP JUMPDEST POP DUP6 SWAP4 POP POP POP POP SWAP3 SWAP2 POP POP JUMP JUMPDEST PUSH0 PUSH1 0x20 DUP3 ADD SWAP1 POP DUP2 DUP2 SUB PUSH0 DUP4 ADD MSTORE PUSH2 0x1492 DUP2 DUP5 PUSH2 0x141E JUMP JUMPDEST SWAP1 POP SWAP3 SWAP2 POP POP JUMP JUMPDEST PUSH0 DUP3 DUP3 MSTORE PUSH1 0x20 DUP3 ADD SWAP1 POP SWAP3 SWAP2 POP POP JUMP JUMPDEST PUSH32 0x4F6E6C7920746865206F776E65722063616E2063616C6C207468697300000000 PUSH0 DUP3 ADD MSTORE POP JUMP JUMPDEST PUSH0 PUSH2 0x14DE PUSH1 0x1C DUP4 PUSH2 0x149A JUMP JUMPDEST SWAP2 POP PUSH2 0x14E9 DUP3 PUSH2 0x14AA JUMP JUMPDEST PUSH1 0x20 DUP3 ADD SWAP1 POP SWAP2 SWAP1 POP JUMP JUMPDEST PUSH0 PUSH1 0x20 DUP3 ADD SWAP1 POP DUP2 DUP2 SUB PUSH0 DUP4 ADD MSTORE PUSH2 0x150B DUP2 PUSH2 0x14D2 JUMP JUMPDEST SWAP1 POP SWAP2 SWAP1 POP JUMP JUMPDEST PUSH32 0x41756374696F6E2068617320616C726561647920656E64656400000000000000 PUSH0 DUP3 ADD MSTORE POP JUMP JUMPDEST PUSH0 PUSH2 0x1546 PUSH1 0x19 DUP4 PUSH2 0x149A JUMP JUMPDEST SWAP2 POP PUSH2 0x1551 DUP3 PUSH2 0x1512 JUMP JUMPDEST PUSH1 0x20 DUP3 ADD SWAP1 POP SWAP2 SWAP1 POP JUMP JUMPDEST PUSH0 PUSH1 0x20 DUP3 ADD SWAP1 POP DUP2 DUP2 SUB PUSH0 DUP4 ADD MSTORE PUSH2 0x1573 DUP2 PUSH2 0x153A JUMP JUMPDEST SWAP1 POP SWAP2 SWAP1 POP JUMP JUMPDEST PUSH32 0x4E6F7420656E6F75676820626964646572732079657400000000000000000000 PUSH0 DUP3 ADD MSTORE POP JUMP JUMPDEST PUSH0 PUSH2 0x15AE PUSH1 0x16 DUP4 PUSH2 0x149A JUMP JUMPDEST SWAP2 POP PUSH2 0x15B9 DUP3 PUSH2 0x157A JUMP JUMPDEST PUSH1 0x20 DUP3 ADD SWAP1 POP SWAP2 SWAP1 POP JUMP JUMPDEST PUSH0 PUSH1 0x20 DUP3 ADD SWAP1 POP DUP2 DUP2 SUB PUSH0 DUP4 ADD MSTORE PUSH2 0x15DB DUP2 PUSH2 0x15A2 JUMP JUMPDEST SWAP1 POP SWAP2 SWAP1 POP JUMP JUMPDEST PUSH32 0x4E487B7100000000000000000000000000000000000000000000000000000000 PUSH0 MSTORE PUSH1 0x11 PUSH1 0x4 MSTORE PUSH1 0x24 PUSH0 REVERT JUMPDEST PUSH0 PUSH2 0x1619 DUP3 PUSH2 0x11FA JUMP JUMPDEST SWAP2 POP PUSH2 0x1624 DUP4 PUSH2 0x11FA JUMP JUMPDEST SWAP3 POP DUP3 DUP3 ADD SWAP1 POP DUP1 DUP3 GT ISZERO PUSH2 0x163C JUMPI PUSH2 0x163B PUSH2 0x15E2 JUMP JUMPDEST JUMPDEST SWAP3 SWAP2 POP POP JUMP JUMPDEST PUSH32 0x4E487B7100000000000000000000000000000000000000000000000000000000 PUSH0 MSTORE PUSH1 0x32 PUSH1 0x4 MSTORE PUSH1 0x24 PUSH0 REVERT JUMPDEST PUSH32 0x41756374696F6E206973207374696C6C20616374697665000000000000000000 PUSH0 DUP3 ADD MSTORE POP JUMP JUMPDEST PUSH0 PUSH2 0x16A3 PUSH1 0x17 DUP4 PUSH2 0x149A JUMP JUMPDEST SWAP2 POP PUSH2 0x16AE DUP3 PUSH2 0x166F JUMP JUMPDEST PUSH1 0x20 DUP3 ADD SWAP1 POP SWAP2 SWAP1 POP JUMP JUMPDEST PUSH0 PUSH1 0x20 DUP3 ADD SWAP1 POP DUP2 DUP2 SUB PUSH0 DUP4 ADD MSTORE PUSH2 0x16D0 DUP2 PUSH2 0x1697 JUMP JUMPDEST SWAP1 POP SWAP2 SWAP1 POP JUMP JUMPDEST PUSH32 0x496E73756666696369656E742062616C616E6365000000000000000000000000 PUSH0 DUP3 ADD MSTORE POP JUMP JUMPDEST PUSH0 PUSH2 0x170B PUSH1 0x14 DUP4 PUSH2 0x149A JUMP JUMPDEST SWAP2 POP PUSH2 0x1716 DUP3 PUSH2 0x16D7 JUMP JUMPDEST PUSH1 0x20 DUP3 ADD SWAP1 POP SWAP2 SWAP1 POP JUMP JUMPDEST PUSH0 PUSH1 0x20 DUP3 ADD SWAP1 POP DUP2 DUP2 SUB PUSH0 DUP4 ADD MSTORE PUSH2 0x1738 DUP2 PUSH2 0x16FF JUMP JUMPDEST SWAP1 POP SWAP2 SWAP1 POP JUMP JUMPDEST PUSH32 0x43616E6E6F74207265736574207768696C652061756374696F6E206973206163 PUSH0 DUP3 ADD MSTORE PUSH32 0x7469766500000000000000000000000000000000000000000000000000000000 PUSH1 0x20 DUP3 ADD MSTORE POP JUMP JUMPDEST PUSH0 PUSH2 0x1799 PUSH1 0x24 DUP4 PUSH2 0x149A JUMP JUMPDEST SWAP2 POP PUSH2 0x17A4 DUP3 PUSH2 0x173F JUMP JUMPDEST PUSH1 0x40 DUP3 ADD SWAP1 POP SWAP2 SWAP1 POP JUMP JUMPDEST PUSH0 PUSH1 0x20 DUP3 ADD SWAP1 POP DUP2 DUP2 SUB PUSH0 DUP4 ADD MSTORE PUSH2 0x17C6 DUP2 PUSH2 0x178D JUMP JUMPDEST SWAP1 POP SWAP2 SWAP1 POP JUMP JUMPDEST PUSH32 0x42696420616D6F756E74206D7573742062652067726561746572207468616E20 PUSH0 DUP3 ADD MSTORE PUSH32 0x3000000000000000000000000000000000000000000000000000000000000000 PUSH1 0x20 DUP3 ADD MSTORE POP JUMP JUMPDEST PUSH0 PUSH2 0x1827 PUSH1 0x21 DUP4 PUSH2 0x149A JUMP JUMPDEST SWAP2 POP PUSH2 0x1832 DUP3 PUSH2 0x17CD JUMP JUMPDEST PUSH1 0x40 DUP3 ADD SWAP1 POP SWAP2 SWAP1 POP JUMP JUMPDEST PUSH0 PUSH1 0x20 DUP3 ADD SWAP1 POP DUP2 DUP2 SUB PUSH0 DUP4 ADD MSTORE PUSH2 0x1854 DUP2 PUSH2 0x181B JUMP JUMPDEST SWAP1 POP SWAP2 SWAP1 POP JUMP JUMPDEST PUSH32 0x596F752063616E206F6E6C7920626964206F6E63650000000000000000000000 PUSH0 DUP3 ADD MSTORE POP JUMP JUMPDEST PUSH0 PUSH2 0x188F PUSH1 0x15 DUP4 PUSH2 0x149A JUMP JUMPDEST SWAP2 POP PUSH2 0x189A DUP3 PUSH2 0x185B JUMP JUMPDEST PUSH1 0x20 DUP3 ADD SWAP1 POP SWAP2 SWAP1 POP JUMP JUMPDEST PUSH0 PUSH1 0x20 DUP3 ADD SWAP1 POP DUP2 DUP2 SUB PUSH0 DUP4 ADD MSTORE PUSH2 0x18BC DUP2 PUSH2 0x1883 JUMP JUMPDEST SWAP1 POP SWAP2 SWAP1 POP JUMP JUMPDEST PUSH32 0x4D6178696D756D20626964646572732072656163686564000000000000000000 PUSH0 DUP3 ADD MSTORE POP JUMP JUMPDEST PUSH0 PUSH2 0x18F7 PUSH1 0x17 DUP4 PUSH2 0x149A JUMP JUMPDEST SWAP2 POP PUSH2 0x1902 DUP3 PUSH2 0x18C3 JUMP JUMPDEST PUSH1 0x20 DUP3 ADD SWAP1 POP SWAP2 SWAP1 POP JUMP JUMPDEST PUSH0 PUSH1 0x20 DUP3 ADD SWAP1 POP DUP2 DUP2 SUB PUSH0 DUP4 ADD MSTORE PUSH2 0x1924 DUP2 PUSH2 0x18EB JUMP JUMPDEST SWAP1 POP SWAP2 SWAP1 POP JUMP JUMPDEST PUSH32 0x4F6E6C79207468652077696E6E65722063616E2066696E616C697A6500000000 PUSH0 DUP3 ADD MSTORE POP JUMP JUMPDEST PUSH0 PUSH2 0x195F PUSH1 0x1C DUP4 PUSH2 0x149A JUMP JUMPDEST SWAP2 POP PUSH2 0x196A DUP3 PUSH2 0x192B JUMP JUMPDEST PUSH1 0x20 DUP3 ADD SWAP1 POP SWAP2 SWAP1 POP JUMP JUMPDEST PUSH0 PUSH1 0x20 DUP3 ADD SWAP1 POP DUP2 DUP2 SUB PUSH0 DUP4 ADD MSTORE PUSH2 0x198C DUP2 PUSH2 0x1953 JUMP JUMPDEST SWAP1 POP SWAP2 SWAP1 POP JUMP JUMPDEST PUSH0 PUSH2 0x199D DUP3 PUSH2 0x11FA JUMP JUMPDEST SWAP2 POP PUSH2 0x19A8 DUP4 PUSH2 0x11FA JUMP JUMPDEST SWAP3 POP DUP3 DUP3 SUB SWAP1 POP DUP2 DUP2 GT ISZERO PUSH2 0x19C0 JUMPI PUSH2 0x19BF PUSH2 0x15E2 JUMP JUMPDEST JUMPDEST SWAP3 SWAP2 POP POP JUMP JUMPDEST PUSH32 0x4E6F7420656E6F7567682062616C616E63650000000000000000000000000000 PUSH0 DUP3 ADD MSTORE POP JUMP JUMPDEST PUSH0 PUSH2 0x19FA PUSH1 0x12 DUP4 PUSH2 0x149A JUMP JUMPDEST SWAP2 POP PUSH2 0x1A05 DUP3 PUSH2 0x19C6 JUMP JUMPDEST PUSH1 0x20 DUP3 ADD SWAP1 POP SWAP2 SWAP1 POP JUMP JUMPDEST PUSH0 PUSH1 0x20 DUP3 ADD SWAP1 POP DUP2 DUP2 SUB PUSH0 DUP4 ADD MSTORE PUSH2 0x1A27 DUP2 PUSH2 0x19EE JUMP JUMPDEST SWAP1 POP SWAP2 SWAP1 POP JUMP INVALID LOG2 PUSH5 0x6970667358 0x22 SLT KECCAK256 0xEB BYTE BASEFEE MULMOD 0x24 0x21 0xD5 0xC1 0xB8 0xD4 PUSH12 0x405245541E7623894C9836D6 0x1E SAR BLOBBASEFEE PREVRANDAO TLOAD 0xAC PUSH1 0x48 0xD2 PUSH5 0x736F6C6343 STOP ADDMOD BYTE STOP CALLER "
		},
		"gasEstimates": {
			"creation": {
				"codeDepositCost": "1351200",
				"executionCost": "49989",
				"totalCost": "1401189"
			},
			"external": {
				"MAX_USERS()": "413",
				"auctionEnded()": "2605",
				"bids(uint256)": "infinite",
				"determineWinner()": "infinite",
				"finalizeAuction()": "infinite",
				"getBids()": "infinite",
				"owner()": "2550",
				"ownerWithdraw()": "infinite",
				"placeBid()": "99724",
				"refundLosers()": "infinite",
				"resetAuction()": "infinite",
				"secondHighestBid()": "2492",
				"userBids(address)": "2869",
				"winner()": "2530",
				"winningBid()": "2448"
			}
		},
		"methodIdentifiers": {
			"MAX_USERS()": "fa6ac131",
			"auctionEnded()": "86433374",
			"bids(uint256)": "4423c5f1",
			"determineWinner()": "33b16d93",
			"finalizeAuction()": "f77282ab",
			"getBids()": "b81c78ec",
			"owner()": "8da5cb5b",
			"ownerWithdraw()": "4311de8f",
			"placeBid()": "ecfc7ecc",
			"refundLosers()": "3918d542",
			"resetAuction()": "7d350453",
			"secondHighestBid()": "acb902f6",
			"userBids(address)": "851212d9",
			"winner()": "dfbf53ae",
			"winningBid()": "8cf80438"
		}
	},
	"abi": [
		{
			"inputs": [],
			"stateMutability": "nonpayable",
			"type": "constructor"
		},
		{
			"inputs": [],
			"name": "MAX_USERS",
			"outputs": [
				{
					"internalType": "uint256",
					"name": "",
					"type": "uint256"
				}
			],
			"stateMutability": "view",
			"type": "function"
		},
		{
			"inputs": [],
			"name": "auctionEnded",
			"outputs": [
				{
					"internalType": "bool",
					"name": "",
					"type": "bool"
				}
			],
			"stateMutability": "view",
			"type": "function"
		},
		{
			"inputs": [
				{
					"internalType": "uint256",
					"name": "",
					"type": "uint256"
				}
			],
			"name": "bids",
			"outputs": [
				{
					"internalType": "address",
					"name": "bidder",
					"type": "address"
				},
				{
					"internalType": "uint256",
					"name": "amount",
					"type": "uint256"
				}
			],
			"stateMutability": "view",
			"type": "function"
		},
		{
			"inputs": [],
			"name": "determineWinner",
			"outputs": [],
			"stateMutability": "nonpayable",
			"type": "function"
		},
		{
			"inputs": [],
			"name": "finalizeAuction",
			"outputs": [],
			"stateMutability": "nonpayable",
			"type": "function"
		},
		{
			"inputs": [],
			"name": "getBids",
			"outputs": [
				{
					"components": [
						{
							"internalType": "address",
							"name": "bidder",
							"type": "address"
						},
						{
							"internalType": "uint256",
							"name": "amount",
							"type": "uint256"
						}
					],
					"internalType": "struct VickreyAuction.Bid[]",
					"name": "",
					"type": "tuple[]"
				}
			],
			"stateMutability": "view",
			"type": "function"
		},
		{
			"inputs": [],
			"name": "owner",
			"outputs": [
				{
					"internalType": "address",
					"name": "",
					"type": "address"
				}
			],
			"stateMutability": "view",
			"type": "function"
		},
		{
			"inputs": [],
			"name": "ownerWithdraw",
			"outputs": [],
			"stateMutability": "nonpayable",
			"type": "function"
		},
		{
			"inputs": [],
			"name": "placeBid",
			"outputs": [],
			"stateMutability": "payable",
			"type": "function"
		},
		{
			"inputs": [],
			"name": "refundLosers",
			"outputs": [],
			"stateMutability": "nonpayable",
			"type": "function"
		},
		{
			"inputs": [],
			"name": "resetAuction",
			"outputs": [],
			"stateMutability": "nonpayable",
			"type": "function"
		},
		{
			"inputs": [],
			"name": "secondHighestBid",
			"outputs": [
				{
					"internalType": "uint256",
					"name": "",
					"type": "uint256"
				}
			],
			"stateMutability": "view",
			"type": "function"
		},
		{
			"inputs": [
				{
					"internalType": "address",
					"name": "",
					"type": "address"
				}
			],
			"name": "userBids",
			"outputs": [
				{
					"internalType": "uint256",
					"name": "",
					"type": "uint256"
				}
			],
			"stateMutability": "view",
			"type": "function"
		},
		{
			"inputs": [],
			"name": "winner",
			"outputs": [
				{
					"internalType": "address",
					"name": "",
					"type": "address"
				}
			],
			"stateMutability": "view",
			"type": "function"
		},
		{
			"inputs": [],
			"name": "winningBid",
			"outputs": [
				{
					"internalType": "uint256",
					"name": "",
					"type": "uint256"
				}
			],
			"stateMutability": "view",
			"type": "function"
		},
		{
			"stateMutability": "payable",
			"type": "receive"
		}
	]
}